{
  "_format": "hh-sol-artifact-1",
  "contractName": "ReadAFeed",
  "sourceName": "contracts/read.sol",
  "abi": [
    {
      "inputs": [
        {
          "internalType": "address",
          "name": "_switchboard",
          "type": "address"
        },
        {
          "internalType": "address",
          "name": "_aggregatorAdapterAddress",
          "type": "address"
        }
      ],
      "stateMutability": "nonpayable",
      "type": "constructor"
    },
    {
      "inputs": [],
      "name": "getLatestResult",
      "outputs": [
        {
          "internalType": "int256",
          "name": "value",
          "type": "int256"
        },
        {
          "internalType": "uint256",
          "name": "timestamp",
          "type": "uint256"
        }
      ],
      "stateMutability": "nonpayable",
      "type": "function"
    },
    {
      "inputs": [],
      "name": "latest",
      "outputs": [
        {
          "internalType": "int256",
          "name": "",
          "type": "int256"
        },
        {
          "internalType": "uint256",
          "name": "",
          "type": "uint256"
        }
      ],
      "stateMutability": "view",
      "type": "function"
    },
    {
      "inputs": [],
      "name": "latestTimestamp",
      "outputs": [
        {
          "internalType": "uint256",
          "name": "",
          "type": "uint256"
        }
      ],
      "stateMutability": "view",
      "type": "function"
    },
    {
      "inputs": [],
      "name": "latestValue",
      "outputs": [
        {
          "internalType": "int256",
          "name": "",
          "type": "int256"
        }
      ],
      "stateMutability": "view",
      "type": "function"
    }
  ],
  "bytecode": "0x608060405234801561001057600080fd5b5060405161029838038061029883398101604081905261002f9161007c565b600280546001600160a01b039384166001600160a01b031991821617909155600380549290931691161790556100af565b80516001600160a01b038116811461007757600080fd5b919050565b6000806040838503121561008f57600080fd5b61009883610060565b91506100a660208401610060565b90509250929050565b6101da806100be6000396000f3fe608060405234801561001057600080fd5b506004361061004c5760003560e01c80634ab5cc821461005157806352bfe7891461006d578063756b04de146100895780638205bf6a14610091575b600080fd5b61005a60005481565b6040519081526020015b60405180910390f35b6000546001545b60408051928352602083019190915201610064565b61007461009a565b61005a60015481565b6000806000600260009054906101000a90046001600160a01b03169050600080826001600160a01b031663feaf968c6040518163ffffffff1660e01b815260040160a060405180830381865afa1580156100f8573d6000803e3d6000fd5b505050506040513d601f19601f8201168201806040525081019061011c9190610154565b5050600181905560008290559097909650945050505050565b805169ffffffffffffffffffff8116811461014f57600080fd5b919050565b600080600080600060a0868803121561016c57600080fd5b61017586610135565b945060208601519350604086015192506060860151915061019860808701610135565b9050929550929590935056fea2646970667358221220f2e4b87a5dce203e85b89cfc7d70cb4eaca2c8b9744599a9d648bbdb8d8333f864736f6c63430008110033",
  "linkReferences": {},
  "deployedLinkReferences": {}
}