{"contracts/read.sol":{"ReadAFeed":{"abi":[{"inputs":[{"internalType":"address","name":"_switchboard","type":"address"},{"internalType":"address","name":"_aggregatorAddress","type":"address"}],"stateMutability":"nonpayable","type":"constructor"},{"inputs":[],"name":"getLatestResult","outputs":[{"internalType":"int256","name":"value","type":"int256"},{"internalType":"uint256","name":"timestamp","type":"uint256"}],"stateMutability":"nonpayable","type":"function"},{"inputs":[],"name":"getRoundData","outputs":[{"internalType":"uint80","name":"roundId","type":"uint80"},{"internalType":"int256","name":"answer","type":"int256"},{"internalType":"uint256","name":"timestamp","type":"uint256"},{"internalType":"uint256","name":"oldestConsideredTimestamp","type":"uint256"}],"stateMutability":"nonpayable","type":"function"},{"inputs":[],"name":"latest","outputs":[{"internalType":"int256","name":"","type":"int256"},{"internalType":"uint256","name":"","type":"uint256"}],"stateMutability":"view","type":"function"},{"inputs":[],"name":"latestTimestamp","outputs":[{"internalType":"uint256","name":"","type":"uint256"}],"stateMutability":"view","type":"function"},{"inputs":[],"name":"latestValue","outputs":[{"internalType":"int256","name":"","type":"int256"}],"stateMutability":"view","type":"function"}],"evm":{"bytecode":{"linkReferences":{},"object":"608060405234801561001057600080fd5b5060405161036338038061036383398101604081905261002f9161007c565b600280546001600160a01b039384166001600160a01b031991821617909155600380549290931691161790556100af565b80516001600160a01b038116811461007757600080fd5b919050565b6000806040838503121561008f57600080fd5b61009883610060565b91506100a660208401610060565b90509250929050565b6102a5806100be6000396000f3fe608060405234801561001057600080fd5b50600436106100575760003560e01c80634ab5cc821461005c57806352bfe7891461007857806372142a4514610094578063756b04de146100c95780638205bf6a146100d1575b600080fd5b61006560005481565b6040519081526020015b60405180910390f35b6000546001545b6040805192835260208301919091520161006f565b61009c6100da565b6040805169ffffffffffffffffffff9095168552602085019390935291830152606082015260800161006f565b61007f610172565b61006560015481565b600254600354604051631707934960e31b81526001600160a01b0391821660048201526000928392839283929190911690819063b83c9a48906024016080604051808303816000875af1158015610135573d6000803e3d6000fd5b505050506040513d601f19601f8201168201806040525081019061015991906101fd565b6001829055600083905592989197509550909350915050565b600254600354604051637d5802d160e11b81526001600160a01b03918216600482015260009283921690819063fab005a29060240160408051808303816000875af11580156101c5573d6000803e3d6000fd5b505050506040513d601f19601f820116820180604052508101906101e9919061024b565b600082905560018190559094909350915050565b6000806000806080858703121561021357600080fd5b845169ffffffffffffffffffff8116811461022d57600080fd5b60208601516040870151606090970151919890975090945092505050565b6000806040838503121561025e57600080fd5b50508051602090910151909290915056fea264697066735822122072c0d7b9ead0c820fa0b556607df441fb12d829b29dcc9369b8514f189453a4d64736f6c63430008110033","opcodes":"PUSH1 0x80 PUSH1 0x40 MSTORE CALLVALUE DUP1 ISZERO PUSH2 0x10 JUMPI PUSH1 0x0 DUP1 REVERT JUMPDEST POP PUSH1 0x40 MLOAD PUSH2 0x363 CODESIZE SUB DUP1 PUSH2 0x363 DUP4 CODECOPY DUP2 ADD PUSH1 0x40 DUP2 SWAP1 MSTORE PUSH2 0x2F SWAP2 PUSH2 0x7C JUMP JUMPDEST PUSH1 0x2 DUP1 SLOAD PUSH1 0x1 PUSH1 0x1 PUSH1 0xA0 SHL SUB SWAP4 DUP5 AND PUSH1 0x1 PUSH1 0x1 PUSH1 0xA0 SHL SUB NOT SWAP2 DUP3 AND OR SWAP1 SWAP2 SSTORE PUSH1 0x3 DUP1 SLOAD SWAP3 SWAP1 SWAP4 AND SWAP2 AND OR SWAP1 SSTORE PUSH2 0xAF JUMP JUMPDEST DUP1 MLOAD PUSH1 0x1 PUSH1 0x1 PUSH1 0xA0 SHL SUB DUP2 AND DUP2 EQ PUSH2 0x77 JUMPI PUSH1 0x0 DUP1 REVERT JUMPDEST SWAP2 SWAP1 POP JUMP JUMPDEST PUSH1 0x0 DUP1 PUSH1 0x40 DUP4 DUP6 SUB SLT ISZERO PUSH2 0x8F JUMPI PUSH1 0x0 DUP1 REVERT JUMPDEST PUSH2 0x98 DUP4 PUSH2 0x60 JUMP JUMPDEST SWAP2 POP PUSH2 0xA6 PUSH1 0x20 DUP5 ADD PUSH2 0x60 JUMP JUMPDEST SWAP1 POP SWAP3 POP SWAP3 SWAP1 POP JUMP JUMPDEST PUSH2 0x2A5 DUP1 PUSH2 0xBE PUSH1 0x0 CODECOPY PUSH1 0x0 RETURN INVALID PUSH1 0x80 PUSH1 0x40 MSTORE CALLVALUE DUP1 ISZERO PUSH2 0x10 JUMPI PUSH1 0x0 DUP1 REVERT JUMPDEST POP PUSH1 0x4 CALLDATASIZE LT PUSH2 0x57 JUMPI PUSH1 0x0 CALLDATALOAD PUSH1 0xE0 SHR DUP1 PUSH4 0x4AB5CC82 EQ PUSH2 0x5C JUMPI DUP1 PUSH4 0x52BFE789 EQ PUSH2 0x78 JUMPI DUP1 PUSH4 0x72142A45 EQ PUSH2 0x94 JUMPI DUP1 PUSH4 0x756B04DE EQ PUSH2 0xC9 JUMPI DUP1 PUSH4 0x8205BF6A EQ PUSH2 0xD1 JUMPI JUMPDEST PUSH1 0x0 DUP1 REVERT JUMPDEST PUSH2 0x65 PUSH1 0x0 SLOAD DUP2 JUMP JUMPDEST PUSH1 0x40 MLOAD SWAP1 DUP2 MSTORE PUSH1 0x20 ADD JUMPDEST PUSH1 0x40 MLOAD DUP1 SWAP2 SUB SWAP1 RETURN JUMPDEST PUSH1 0x0 SLOAD PUSH1 0x1 SLOAD JUMPDEST PUSH1 0x40 DUP1 MLOAD SWAP3 DUP4 MSTORE PUSH1 0x20 DUP4 ADD SWAP2 SWAP1 SWAP2 MSTORE ADD PUSH2 0x6F JUMP JUMPDEST PUSH2 0x9C PUSH2 0xDA JUMP JUMPDEST PUSH1 0x40 DUP1 MLOAD PUSH10 0xFFFFFFFFFFFFFFFFFFFF SWAP1 SWAP6 AND DUP6 MSTORE PUSH1 0x20 DUP6 ADD SWAP4 SWAP1 SWAP4 MSTORE SWAP2 DUP4 ADD MSTORE PUSH1 0x60 DUP3 ADD MSTORE PUSH1 0x80 ADD PUSH2 0x6F JUMP JUMPDEST PUSH2 0x7F PUSH2 0x172 JUMP JUMPDEST PUSH2 0x65 PUSH1 0x1 SLOAD DUP2 JUMP JUMPDEST PUSH1 0x2 SLOAD PUSH1 0x3 SLOAD PUSH1 0x40 MLOAD PUSH4 0x17079349 PUSH1 0xE3 SHL DUP2 MSTORE PUSH1 0x1 PUSH1 0x1 PUSH1 0xA0 SHL SUB SWAP2 DUP3 AND PUSH1 0x4 DUP3 ADD MSTORE PUSH1 0x0 SWAP3 DUP4 SWAP3 DUP4 SWAP3 DUP4 SWAP3 SWAP2 SWAP1 SWAP2 AND SWAP1 DUP2 SWAP1 PUSH4 0xB83C9A48 SWAP1 PUSH1 0x24 ADD PUSH1 0x80 PUSH1 0x40 MLOAD DUP1 DUP4 SUB DUP2 PUSH1 0x0 DUP8 GAS CALL ISZERO DUP1 ISZERO PUSH2 0x135 JUMPI RETURNDATASIZE PUSH1 0x0 DUP1 RETURNDATACOPY RETURNDATASIZE PUSH1 0x0 REVERT JUMPDEST POP POP POP POP PUSH1 0x40 MLOAD RETURNDATASIZE PUSH1 0x1F NOT PUSH1 0x1F DUP3 ADD AND DUP3 ADD DUP1 PUSH1 0x40 MSTORE POP DUP2 ADD SWAP1 PUSH2 0x159 SWAP2 SWAP1 PUSH2 0x1FD JUMP JUMPDEST PUSH1 0x1 DUP3 SWAP1 SSTORE PUSH1 0x0 DUP4 SWAP1 SSTORE SWAP3 SWAP9 SWAP2 SWAP8 POP SWAP6 POP SWAP1 SWAP4 POP SWAP2 POP POP JUMP JUMPDEST PUSH1 0x2 SLOAD PUSH1 0x3 SLOAD PUSH1 0x40 MLOAD PUSH4 0x7D5802D1 PUSH1 0xE1 SHL DUP2 MSTORE PUSH1 0x1 PUSH1 0x1 PUSH1 0xA0 SHL SUB SWAP2 DUP3 AND PUSH1 0x4 DUP3 ADD MSTORE PUSH1 0x0 SWAP3 DUP4 SWAP3 AND SWAP1 DUP2 SWAP1 PUSH4 0xFAB005A2 SWAP1 PUSH1 0x24 ADD PUSH1 0x40 DUP1 MLOAD DUP1 DUP4 SUB DUP2 PUSH1 0x0 DUP8 GAS CALL ISZERO DUP1 ISZERO PUSH2 0x1C5 JUMPI RETURNDATASIZE PUSH1 0x0 DUP1 RETURNDATACOPY RETURNDATASIZE PUSH1 0x0 REVERT JUMPDEST POP POP POP POP PUSH1 0x40 MLOAD RETURNDATASIZE PUSH1 0x1F NOT PUSH1 0x1F DUP3 ADD AND DUP3 ADD DUP1 PUSH1 0x40 MSTORE POP DUP2 ADD SWAP1 PUSH2 0x1E9 SWAP2 SWAP1 PUSH2 0x24B JUMP JUMPDEST PUSH1 0x0 DUP3 SWAP1 SSTORE PUSH1 0x1 DUP2 SWAP1 SSTORE SWAP1 SWAP5 SWAP1 SWAP4 POP SWAP2 POP POP JUMP JUMPDEST PUSH1 0x0 DUP1 PUSH1 0x0 DUP1 PUSH1 0x80 DUP6 DUP8 SUB SLT ISZERO PUSH2 0x213 JUMPI PUSH1 0x0 DUP1 REVERT JUMPDEST DUP5 MLOAD PUSH10 0xFFFFFFFFFFFFFFFFFFFF DUP2 AND DUP2 EQ PUSH2 0x22D JUMPI PUSH1 0x0 DUP1 REVERT JUMPDEST PUSH1 0x20 DUP7 ADD MLOAD PUSH1 0x40 DUP8 ADD MLOAD PUSH1 0x60 SWAP1 SWAP8 ADD MLOAD SWAP2 SWAP9 SWAP1 SWAP8 POP SWAP1 SWAP5 POP SWAP3 POP POP POP JUMP JUMPDEST PUSH1 0x0 DUP1 PUSH1 0x40 DUP4 DUP6 SUB SLT ISZERO PUSH2 0x25E JUMPI PUSH1 0x0 DUP1 REVERT JUMPDEST POP POP DUP1 MLOAD PUSH1 0x20 SWAP1 SWAP2 ADD MLOAD SWAP1 SWAP3 SWAP1 SWAP2 POP JUMP INVALID LOG2 PUSH5 0x6970667358 0x22 SLT KECCAK256 PUSH19 0xC0D7B9EAD0C820FA0B556607DF441FB12D829B 0x29 0xDC 0xC9 CALLDATASIZE SWAP12 DUP6 EQ CALL DUP10 GASLIMIT GASPRICE 0x4D PUSH5 0x736F6C6343 STOP ADDMOD GT STOP CALLER "},"methodIdentifiers":{"getLatestResult()":"756b04de","getRoundData()":"72142a45","latest()":"52bfe789","latestTimestamp()":"8205bf6a","latestValue()":"4ab5cc82"}}}}}