{
  "_format": "hh-sol-artifact-1",
  "contractName": "ReadAFeed",
  "sourceName": "contracts/read.sol",
  "abi": [
    {
      "inputs": [
        {
          "internalType": "address",
          "name": "_switchboard",
          "type": "address"
        },
        {
          "internalType": "address",
          "name": "_aggregatorAddress",
          "type": "address"
        }
      ],
      "stateMutability": "nonpayable",
      "type": "constructor"
    },
    {
      "inputs": [],
      "name": "getLatestResult",
      "outputs": [
        {
          "internalType": "int256",
          "name": "value",
          "type": "int256"
        },
        {
          "internalType": "uint256",
          "name": "timestamp",
          "type": "uint256"
        }
      ],
      "stateMutability": "nonpayable",
      "type": "function"
    },
    {
      "inputs": [],
      "name": "getRoundData",
      "outputs": [
        {
          "internalType": "uint80",
          "name": "roundId",
          "type": "uint80"
        },
        {
          "internalType": "int256",
          "name": "answer",
          "type": "int256"
        },
        {
          "internalType": "uint256",
          "name": "timestamp",
          "type": "uint256"
        },
        {
          "internalType": "uint256",
          "name": "oldestConsideredTimestamp",
          "type": "uint256"
        }
      ],
      "stateMutability": "nonpayable",
      "type": "function"
    },
    {
      "inputs": [],
      "name": "latest",
      "outputs": [
        {
          "internalType": "int256",
          "name": "",
          "type": "int256"
        },
        {
          "internalType": "uint256",
          "name": "",
          "type": "uint256"
        }
      ],
      "stateMutability": "view",
      "type": "function"
    },
    {
      "inputs": [],
      "name": "latestTimestamp",
      "outputs": [
        {
          "internalType": "uint256",
          "name": "",
          "type": "uint256"
        }
      ],
      "stateMutability": "view",
      "type": "function"
    },
    {
      "inputs": [],
      "name": "latestValue",
      "outputs": [
        {
          "internalType": "int256",
          "name": "",
          "type": "int256"
        }
      ],
      "stateMutability": "view",
      "type": "function"
    }
  ],
  "bytecode": "0x608060405234801561001057600080fd5b5060405161036338038061036383398101604081905261002f9161007c565b600280546001600160a01b039384166001600160a01b031991821617909155600380549290931691161790556100af565b80516001600160a01b038116811461007757600080fd5b919050565b6000806040838503121561008f57600080fd5b61009883610060565b91506100a660208401610060565b90509250929050565b6102a5806100be6000396000f3fe608060405234801561001057600080fd5b50600436106100575760003560e01c80634ab5cc821461005c57806352bfe7891461007857806372142a4514610094578063756b04de146100c95780638205bf6a146100d1575b600080fd5b61006560005481565b6040519081526020015b60405180910390f35b6000546001545b6040805192835260208301919091520161006f565b61009c6100da565b6040805169ffffffffffffffffffff9095168552602085019390935291830152606082015260800161006f565b61007f610172565b61006560015481565b600254600354604051631707934960e31b81526001600160a01b0391821660048201526000928392839283929190911690819063b83c9a48906024016080604051808303816000875af1158015610135573d6000803e3d6000fd5b505050506040513d601f19601f8201168201806040525081019061015991906101fd565b6001829055600083905592989197509550909350915050565b600254600354604051637d5802d160e11b81526001600160a01b03918216600482015260009283921690819063fab005a29060240160408051808303816000875af11580156101c5573d6000803e3d6000fd5b505050506040513d601f19601f820116820180604052508101906101e9919061024b565b600082905560018190559094909350915050565b6000806000806080858703121561021357600080fd5b845169ffffffffffffffffffff8116811461022d57600080fd5b60208601516040870151606090970151919890975090945092505050565b6000806040838503121561025e57600080fd5b50508051602090910151909290915056fea264697066735822122072c0d7b9ead0c820fa0b556607df441fb12d829b29dcc9369b8514f189453a4d64736f6c63430008110033",
  "linkReferences": {},
  "deployedLinkReferences": {}
}